{
  "abi": [
    {
      "inputs": [
        {
          "internalType": "string",
          "name": "name",
          "type": "string"
        },
        {
          "internalType": "string",
          "name": "symbol",
          "type": "string"
        }
      ],
      "stateMutability": "nonpayable",
      "type": "constructor"
    },
    {
      "anonymous": false,
      "inputs": [
        {
          "indexed": true,
          "internalType": "address",
          "name": "owner",
          "type": "address"
        },
        {
          "indexed": true,
          "internalType": "address",
          "name": "spender",
          "type": "address"
        },
        {
          "indexed": false,
          "internalType": "uint256",
          "name": "value",
          "type": "uint256"
        }
      ],
      "name": "Approval",
      "type": "event"
    },
    {
      "anonymous": false,
      "inputs": [
        {
          "components": [
            {
              "internalType": "enum AuthType",
              "name": "authType",
              "type": "uint8"
            },
            {
              "internalType": "bool",
              "name": "isAnon",
              "type": "bool"
            },
            {
              "internalType": "uint256",
              "name": "userId",
              "type": "uint256"
            },
            {
              "internalType": "bytes",
              "name": "extraData",
              "type": "bytes"
            },
            {
              "internalType": "bytes",
              "name": "proofData",
              "type": "bytes"
            }
          ],
          "indexed": false,
          "internalType": "struct VerifiedAuth",
          "name": "verifiedAuth",
          "type": "tuple"
        }
      ],
      "name": "AuthVerified",
      "type": "event"
    },
    {
      "anonymous": false,
      "inputs": [
        {
          "components": [
            {
              "internalType": "enum ClaimType",
              "name": "claimType",
              "type": "uint8"
            },
            {
              "internalType": "bytes16",
              "name": "groupId",
              "type": "bytes16"
            },
            {
              "internalType": "bytes16",
              "name": "groupTimestamp",
              "type": "bytes16"
            },
            {
              "internalType": "uint256",
              "name": "value",
              "type": "uint256"
            },
            {
              "internalType": "bytes",
              "name": "extraData",
              "type": "bytes"
            },
            {
              "internalType": "uint256",
              "name": "proofId",
              "type": "uint256"
            },
            {
              "internalType": "bytes",
              "name": "proofData",
              "type": "bytes"
            }
          ],
          "indexed": false,
          "internalType": "struct VerifiedClaim",
          "name": "verifiedClaim",
          "type": "tuple"
        }
      ],
      "name": "ClaimVerified",
      "type": "event"
    },
    {
      "anonymous": false,
      "inputs": [
        {
          "indexed": false,
          "internalType": "bytes",
          "name": "verifiedSignedMessage",
          "type": "bytes"
        }
      ],
      "name": "SignedMessageVerified",
      "type": "event"
    },
    {
      "anonymous": false,
      "inputs": [
        {
          "indexed": true,
          "internalType": "address",
          "name": "from",
          "type": "address"
        },
        {
          "indexed": true,
          "internalType": "address",
          "name": "to",
          "type": "address"
        },
        {
          "indexed": false,
          "internalType": "uint256",
          "name": "value",
          "type": "uint256"
        }
      ],
      "name": "Transfer",
      "type": "event"
    },
    {
      "inputs": [],
      "name": "ADDRESSES_PROVIDER_V2",
      "outputs": [
        {
          "internalType": "contract IAddressesProvider",
          "name": "",
          "type": "address"
        }
      ],
      "stateMutability": "view",
      "type": "function"
    },
    {
      "inputs": [],
      "name": "APP_ID",
      "outputs": [
        {
          "internalType": "bytes16",
          "name": "",
          "type": "bytes16"
        }
      ],
      "stateMutability": "view",
      "type": "function"
    },
    {
      "inputs": [],
      "name": "IS_IMPERSONATION_MODE",
      "outputs": [
        {
          "internalType": "bool",
          "name": "",
          "type": "bool"
        }
      ],
      "stateMutability": "view",
      "type": "function"
    },
    {
      "inputs": [],
      "name": "SISMO_CONNECT_LIB_VERSION",
      "outputs": [
        {
          "internalType": "uint256",
          "name": "",
          "type": "uint256"
        }
      ],
      "stateMutability": "view",
      "type": "function"
    },
    {
      "inputs": [
        {
          "internalType": "address",
          "name": "owner",
          "type": "address"
        },
        {
          "internalType": "address",
          "name": "spender",
          "type": "address"
        }
      ],
      "name": "allowance",
      "outputs": [
        {
          "internalType": "uint256",
          "name": "",
          "type": "uint256"
        }
      ],
      "stateMutability": "view",
      "type": "function"
    },
    {
      "inputs": [
        {
          "internalType": "address",
          "name": "spender",
          "type": "address"
        },
        {
          "internalType": "uint256",
          "name": "amount",
          "type": "uint256"
        }
      ],
      "name": "approve",
      "outputs": [
        {
          "internalType": "bool",
          "name": "",
          "type": "bool"
        }
      ],
      "stateMutability": "nonpayable",
      "type": "function"
    },
    {
      "inputs": [
        {
          "internalType": "address",
          "name": "account",
          "type": "address"
        }
      ],
      "name": "balanceOf",
      "outputs": [
        {
          "internalType": "uint256",
          "name": "",
          "type": "uint256"
        }
      ],
      "stateMutability": "view",
      "type": "function"
    },
    {
      "inputs": [
        {
          "internalType": "bytes",
          "name": "response",
          "type": "bytes"
        },
        {
          "internalType": "address",
          "name": "to",
          "type": "address"
        }
      ],
      "name": "claimWithSismo",
      "outputs": [],
      "stateMutability": "nonpayable",
      "type": "function"
    },
    {
      "inputs": [],
      "name": "config",
      "outputs": [
        {
          "components": [
            {
              "internalType": "bytes16",
              "name": "appId",
              "type": "bytes16"
            },
            {
              "components": [
                {
                  "internalType": "bool",
                  "name": "isImpersonationMode",
                  "type": "bool"
                }
              ],
              "internalType": "struct VaultConfig",
              "name": "vault",
              "type": "tuple"
            }
          ],
          "internalType": "struct SismoConnectConfig",
          "name": "",
          "type": "tuple"
        }
      ],
      "stateMutability": "view",
      "type": "function"
    },
    {
      "inputs": [],
      "name": "decimals",
      "outputs": [
        {
          "internalType": "uint8",
          "name": "",
          "type": "uint8"
        }
      ],
      "stateMutability": "view",
      "type": "function"
    },
    {
      "inputs": [
        {
          "internalType": "address",
          "name": "spender",
          "type": "address"
        },
        {
          "internalType": "uint256",
          "name": "subtractedValue",
          "type": "uint256"
        }
      ],
      "name": "decreaseAllowance",
      "outputs": [
        {
          "internalType": "bool",
          "name": "",
          "type": "bool"
        }
      ],
      "stateMutability": "nonpayable",
      "type": "function"
    },
    {
      "inputs": [],
      "name": "getSismoConnectVerifiedResult",
      "outputs": [
        {
          "components": [
            {
              "internalType": "enum AuthType",
              "name": "authType",
              "type": "uint8"
            },
            {
              "internalType": "bool",
              "name": "isAnon",
              "type": "bool"
            },
            {
              "internalType": "uint256",
              "name": "userId",
              "type": "uint256"
            },
            {
              "internalType": "bytes",
              "name": "extraData",
              "type": "bytes"
            },
            {
              "internalType": "bytes",
              "name": "proofData",
              "type": "bytes"
            }
          ],
          "internalType": "struct VerifiedAuth[]",
          "name": "",
          "type": "tuple[]"
        },
        {
          "components": [
            {
              "internalType": "enum ClaimType",
              "name": "claimType",
              "type": "uint8"
            },
            {
              "internalType": "bytes16",
              "name": "groupId",
              "type": "bytes16"
            },
            {
              "internalType": "bytes16",
              "name": "groupTimestamp",
              "type": "bytes16"
            },
            {
              "internalType": "uint256",
              "name": "value",
              "type": "uint256"
            },
            {
              "internalType": "bytes",
              "name": "extraData",
              "type": "bytes"
            },
            {
              "internalType": "uint256",
              "name": "proofId",
              "type": "uint256"
            },
            {
              "internalType": "bytes",
              "name": "proofData",
              "type": "bytes"
            }
          ],
          "internalType": "struct VerifiedClaim[]",
          "name": "",
          "type": "tuple[]"
        },
        {
          "internalType": "bytes",
          "name": "",
          "type": "bytes"
        }
      ],
      "stateMutability": "view",
      "type": "function"
    },
    {
      "inputs": [
        {
          "internalType": "address",
          "name": "spender",
          "type": "address"
        },
        {
          "internalType": "uint256",
          "name": "addedValue",
          "type": "uint256"
        }
      ],
      "name": "increaseAllowance",
      "outputs": [
        {
          "internalType": "bool",
          "name": "",
          "type": "bool"
        }
      ],
      "stateMutability": "nonpayable",
      "type": "function"
    },
    {
      "inputs": [],
      "name": "name",
      "outputs": [
        {
          "internalType": "string",
          "name": "",
          "type": "string"
        }
      ],
      "stateMutability": "view",
      "type": "function"
    },
    {
      "inputs": [],
      "name": "symbol",
      "outputs": [
        {
          "internalType": "string",
          "name": "",
          "type": "string"
        }
      ],
      "stateMutability": "view",
      "type": "function"
    },
    {
      "inputs": [],
      "name": "totalSupply",
      "outputs": [
        {
          "internalType": "uint256",
          "name": "",
          "type": "uint256"
        }
      ],
      "stateMutability": "view",
      "type": "function"
    },
    {
      "inputs": [
        {
          "internalType": "address",
          "name": "to",
          "type": "address"
        },
        {
          "internalType": "uint256",
          "name": "amount",
          "type": "uint256"
        }
      ],
      "name": "transfer",
      "outputs": [
        {
          "internalType": "bool",
          "name": "",
          "type": "bool"
        }
      ],
      "stateMutability": "nonpayable",
      "type": "function"
    },
    {
      "inputs": [
        {
          "internalType": "address",
          "name": "from",
          "type": "address"
        },
        {
          "internalType": "address",
          "name": "to",
          "type": "address"
        },
        {
          "internalType": "uint256",
          "name": "amount",
          "type": "uint256"
        }
      ],
      "name": "transferFrom",
      "outputs": [
        {
          "internalType": "bool",
          "name": "",
          "type": "bool"
        }
      ],
      "stateMutability": "nonpayable",
      "type": "function"
    }
  ],
  "bytecode": {
    "object": "0x6101606040526f4a4e9fbd4e3e4d58a57a504a40611c8560801b600560006101000a8154816fffffffffffffffffffffffffffffffff021916908360801c02179055506001600560106101000a81548160ff0219169083151502179055503480156200006a57600080fd5b50604051620061153803806200611583398181016040528101906200009091906200086a565b620000c0600560009054906101000a900460801b600560109054906101000a900460ff166200062160201b60201c565b82828160039081620000d3919062000b3a565b508060049081620000e5919062000b3a565b50505080600001516fffffffffffffffffffffffffffffffff1916610120816fffffffffffffffffffffffffffffffff191681525050806020015160000151151561014081151581525050733cd5334eb64ebbd4003b72022cc25465f1bfcee673ffffffffffffffffffffffffffffffffffffffff1663693ec85e6040518060400160405280601981526020017f7369736d6f436f6e6e65637456657269666965722d76312e32000000000000008152506040518263ffffffff1660e01b8152600401620001b4919062000c73565b602060405180830381865afa158015620001d2573d6000803e3d6000fd5b505050506040513d601f19601f82011682018060405250810190620001f8919062000cfc565b73ffffffffffffffffffffffffffffffffffffffff1660808173ffffffffffffffffffffffffffffffffffffffff1681525050733cd5334eb64ebbd4003b72022cc25465f1bfcee673ffffffffffffffffffffffffffffffffffffffff1663693ec85e6040518060400160405280601781526020017f61757468526571756573744275696c6465722d76312e310000000000000000008152506040518263ffffffff1660e01b8152600401620002af919062000c73565b602060405180830381865afa158015620002cd573d6000803e3d6000fd5b505050506040513d601f19601f82011682018060405250810190620002f3919062000cfc565b73ffffffffffffffffffffffffffffffffffffffff1660a08173ffffffffffffffffffffffffffffffffffffffff1681525050733cd5334eb64ebbd4003b72022cc25465f1bfcee673ffffffffffffffffffffffffffffffffffffffff1663693ec85e6040518060400160405280601881526020017f636c61696d526571756573744275696c6465722d76312e3100000000000000008152506040518263ffffffff1660e01b8152600401620003aa919062000c73565b602060405180830381865afa158015620003c8573d6000803e3d6000fd5b505050506040513d601f19601f82011682018060405250810190620003ee919062000cfc565b73ffffffffffffffffffffffffffffffffffffffff1660c08173ffffffffffffffffffffffffffffffffffffffff1681525050733cd5334eb64ebbd4003b72022cc25465f1bfcee673ffffffffffffffffffffffffffffffffffffffff1663693ec85e6040518060400160405280601581526020017f7369676e61747572654275696c6465722d76312e3100000000000000000000008152506040518263ffffffff1660e01b8152600401620004a5919062000c73565b602060405180830381865afa158015620004c3573d6000803e3d6000fd5b505050506040513d601f19601f82011682018060405250810190620004e9919062000cfc565b73ffffffffffffffffffffffffffffffffffffffff1660e08173ffffffffffffffffffffffffffffffffffffffff1681525050733cd5334eb64ebbd4003b72022cc25465f1bfcee673ffffffffffffffffffffffffffffffffffffffff1663693ec85e6040518060400160405280601381526020017f726571756573744275696c6465722d76312e31000000000000000000000000008152506040518263ffffffff1660e01b8152600401620005a0919062000c73565b602060405180830381865afa158015620005be573d6000803e3d6000fd5b505050506040513d601f19601f82011682018060405250810190620005e4919062000cfc565b73ffffffffffffffffffffffffffffffffffffffff166101008173ffffffffffffffffffffffffffffffffffffffff168152505050505062000d2e565b6200062b6200068d565b6040518060400160405280846fffffffffffffffffffffffffffffffff1916815260200162000660846200066b60201b60201c565b815250905092915050565b62000675620006c2565b60405180602001604052808315158152509050919050565b604051806040016040528060006fffffffffffffffffffffffffffffffff19168152602001620006bc620006c2565b81525090565b60405180602001604052806000151581525090565b6000604051905090565b600080fd5b600080fd5b600080fd5b600080fd5b6000601f19601f8301169050919050565b7f4e487b7100000000000000000000000000000000000000000000000000000000600052604160045260246000fd5b6200074082620006f5565b810181811067ffffffffffffffff8211171562000762576200076162000706565b5b80604052505050565b600062000777620006d7565b905062000785828262000735565b919050565b600067ffffffffffffffff821115620007a857620007a762000706565b5b620007b382620006f5565b9050602081019050919050565b60005b83811015620007e0578082015181840152602081019050620007c3565b60008484015250505050565b600062000803620007fd846200078a565b6200076b565b905082815260208101848484011115620008225762000821620006f0565b5b6200082f848285620007c0565b509392505050565b600082601f8301126200084f576200084e620006eb565b5b815162000861848260208601620007ec565b91505092915050565b60008060408385031215620008845762000883620006e1565b5b600083015167ffffffffffffffff811115620008a557620008a4620006e6565b5b620008b38582860162000837565b925050602083015167ffffffffffffffff811115620008d757620008d6620006e6565b5b620008e58582860162000837565b9150509250929050565b600081519050919050565b7f4e487b7100000000000000000000000000000000000000000000000000000000600052602260045260246000fd5b600060028204905060018216806200094257607f821691505b602082108103620009585762000957620008fa565b5b50919050565b60008190508160005260206000209050919050565b60006020601f8301049050919050565b600082821b905092915050565b600060088302620009c27fffffffffffffffffffffffffffffffffffffffffffffffffffffffffffffffff8262000983565b620009ce868362000983565b95508019841693508086168417925050509392505050565b6000819050919050565b6000819050919050565b600062000a1b62000a1562000a0f84620009e6565b620009f0565b620009e6565b9050919050565b6000819050919050565b62000a3783620009fa565b62000a4f62000a468262000a22565b84845462000990565b825550505050565b600090565b62000a6662000a57565b62000a7381848462000a2c565b505050565b5b8181101562000a9b5762000a8f60008262000a5c565b60018101905062000a79565b5050565b601f82111562000aea5762000ab4816200095e565b62000abf8462000973565b8101602085101562000acf578190505b62000ae762000ade8562000973565b83018262000a78565b50505b505050565b600082821c905092915050565b600062000b0f6000198460080262000aef565b1980831691505092915050565b600062000b2a838362000afc565b9150826002028217905092915050565b62000b4582620008ef565b67ffffffffffffffff81111562000b615762000b6062000706565b5b62000b6d825462000929565b62000b7a82828562000a9f565b600060209050601f83116001811462000bb2576000841562000b9d578287015190505b62000ba9858262000b1c565b86555062000c19565b601f19841662000bc2866200095e565b60005b8281101562000bec5784890151825560018201915060208501945060208101905062000bc5565b8683101562000c0c578489015162000c08601f89168262000afc565b8355505b6001600288020188555050505b505050505050565b600082825260208201905092915050565b600062000c3f82620008ef565b62000c4b818562000c21565b935062000c5d818560208601620007c0565b62000c6881620006f5565b840191505092915050565b6000602082019050818103600083015262000c8f818462000c32565b905092915050565b600073ffffffffffffffffffffffffffffffffffffffff82169050919050565b600062000cc48262000c97565b9050919050565b62000cd68162000cb7565b811462000ce257600080fd5b50565b60008151905062000cf68162000ccb565b92915050565b60006020828403121562000d155762000d14620006e1565b5b600062000d258482850162000ce5565b91505092915050565b60805160a05160c05160e05161010051610120516101405161536962000dac60003960008181610a360152610af3015260008181610a150152610bb101526000611dba01526000611a930152600081816118770152818161192501526119d901526000818161171501526117c301526000611b6801526153696000f3fe608060405234801561001057600080fd5b50600436106101165760003560e01c806379502c55116100a2578063a9059cbb11610071578063a9059cbb146102fd578063c187bbc11461032d578063c94253131461034b578063c9512d9914610367578063dd62ed3e1461038557610116565b806379502c551461027357806395d89b4114610291578063a183dc27146102af578063a457c2d7146102cd57610116565b8063313ce567116100e9578063313ce567146101b757806339509351146101d55780634691630114610205578063646860dc1461022357806370a082311461024357610116565b806306fdde031461011b578063095ea7b31461013957806318160ddd1461016957806323b872dd14610187575b600080fd5b6101236103b5565b60405161013091906122bd565b60405180910390f35b610153600480360381019061014e9190612387565b610447565b60405161016091906123e2565b60405180910390f35b61017161046a565b60405161017e919061240c565b60405180910390f35b6101a1600480360381019061019c9190612427565b610474565b6040516101ae91906123e2565b60405180910390f35b6101bf6104a3565b6040516101cc9190612496565b60405180910390f35b6101ef60048036038101906101ea9190612387565b6104ac565b6040516101fc91906123e2565b60405180910390f35b61020d6104e3565b60405161021a9190612510565b60405180910390f35b61022b6104fb565b60405161023a93929190612986565b60405180910390f35b61025d600480360381019061025891906129d2565b6109c0565b60405161026a919061240c565b60405180910390f35b61027b610a08565b6040516102889190612a4a565b60405180910390f35b610299610a5f565b6040516102a691906122bd565b60405180910390f35b6102b7610af1565b6040516102c491906123e2565b60405180910390f35b6102e760048036038101906102e29190612387565b610b15565b6040516102f491906123e2565b60405180910390f35b61031760048036038101906103129190612387565b610b8c565b60405161032491906123e2565b60405180910390f35b610335610baf565b6040516103429190612a74565b60405180910390f35b61036560048036038101906103609190612bc4565b610bd3565b005b61036f61116c565b60405161037c919061240c565b60405180910390f35b61039f600480360381019061039a9190612c20565b611171565b6040516103ac919061240c565b60405180910390f35b6060600380546103c490612c8f565b80601f01602080910402602001604051908101604052809291908181526020018280546103f090612c8f565b801561043d5780601f106104125761010080835404028352916020019161043d565b820191906000526020600020905b81548152906001019060200180831161042057829003601f168201915b5050505050905090565b6000806104526111f8565b905061045f818585611200565b600191505092915050565b6000600254905090565b60008061047f6111f8565b905061048c8582856113c9565b610497858585611455565b60019150509392505050565b60006012905090565b6000806104b76111f8565b90506104d88185856104c98589611171565b6104d39190612cef565b611200565b600191505092915050565b733cd5334eb64ebbd4003b72022cc25465f1bfcee681565b606080606060066007600882805480602002602001604051908101604052809291908181526020016000905b828210156106dd57838290600052602060002090600402016040518060a00160405290816000820160009054906101000a900460ff16600581111561056f5761056e612557565b5b600581111561058157610580612557565b5b81526020016000820160019054906101000a900460ff16151515158152602001600182015481526020016002820180546105ba90612c8f565b80601f01602080910402602001604051908101604052809291908181526020018280546105e690612c8f565b80156106335780601f1061060857610100808354040283529160200191610633565b820191906000526020600020905b81548152906001019060200180831161061657829003601f168201915b5050505050815260200160038201805461064c90612c8f565b80601f016020809104026020016040519081016040528092919081815260200182805461067890612c8f565b80156106c55780601f1061069a576101008083540402835291602001916106c5565b820191906000526020600020905b8154815290600101906020018083116106a857829003601f168201915b50505050508152505081526020019060010190610527565b50505050925081805480602002602001604051908101604052809291908181526020016000905b8282101561092357838290600052602060002090600602016040518060e00160405290816000820160009054906101000a900460ff16600481111561074c5761074b612557565b5b600481111561075e5761075d612557565b5b81526020016000820160019054906101000a900460801b6fffffffffffffffffffffffffffffffff19166fffffffffffffffffffffffffffffffff191681526020016001820160009054906101000a900460801b6fffffffffffffffffffffffffffffffff19166fffffffffffffffffffffffffffffffff19168152602001600282015481526020016003820180546107f690612c8f565b80601f016020809104026020016040519081016040528092919081815260200182805461082290612c8f565b801561086f5780601f106108445761010080835404028352916020019161086f565b820191906000526020600020905b81548152906001019060200180831161085257829003601f168201915b505050505081526020016004820154815260200160058201805461089290612c8f565b80601f01602080910402602001604051908101604052809291908181526020018280546108be90612c8f565b801561090b5780601f106108e05761010080835404028352916020019161090b565b820191906000526020600020905b8154815290600101906020018083116108ee57829003601f168201915b50505050508152505081526020019060010190610704565b50505050915080805461093590612c8f565b80601f016020809104026020016040519081016040528092919081815260200182805461096190612c8f565b80156109ae5780601f10610983576101008083540402835291602001916109ae565b820191906000526020600020905b81548152906001019060200180831161099157829003601f168201915b50505050509050925092509250909192565b60008060008373ffffffffffffffffffffffffffffffffffffffff1673ffffffffffffffffffffffffffffffffffffffff168152602001908152602001600020549050919050565b610a10611ffe565b610a5a7f00000000000000000000000000000000000000000000000000000000000000007f00000000000000000000000000000000000000000000000000000000000000006116cb565b905090565b606060048054610a6e90612c8f565b80601f0160208091040260200160405190810160405280929190818152602001828054610a9a90612c8f565b8015610ae75780601f10610abc57610100808354040283529160200191610ae7565b820191906000526020600020905b815481529060010190602001808311610aca57829003601f168201915b5050505050905090565b7f000000000000000000000000000000000000000000000000000000000000000081565b600080610b206111f8565b90506000610b2e8286611171565b905083811015610b73576040517f08c379a0000000000000000000000000000000000000000000000000000000008152600401610b6a90612d95565b60405180910390fd5b610b808286868403611200565b60019250505092915050565b600080610b976111f8565b9050610ba4818585611455565b600191505092915050565b7f000000000000000000000000000000000000000000000000000000000000000081565b6000600367ffffffffffffffff811115610bf057610bef612a99565b5b604051908082528060200260200182016040528015610c2957816020015b610c16612031565b815260200190600190039081610c0e5790505b509050610c36600061170b565b81600081518110610c4a57610c49612db5565b5b6020026020010181905250610c5f600361170b565b81600181518110610c7357610c72612db5565b5b6020026020010181905250610c8b60018060016117b9565b81600281518110610c9f57610c9e612db5565b5b60200260200101819052506000600367ffffffffffffffff811115610cc757610cc6612a99565b5b604051908082528060200260200182016040528015610d0057816020015b610ced61207f565b815260200190600190039081610ce55790505b509050610d1f6fda1c3726426d5639f4c6352c2c976b8760801b61186d565b81600081518110610d3357610d32612db5565b5b6020026020010181905250610d5e6f85c7ee90829de70d0d51f52336ea472260801b6004600061191b565b81600181518110610d7257610d71612db5565b5b6020026020010181905250610da06ffae674b6cba3ff2f8ce2114defb200b160801b600a60026001806119cf565b81600281518110610db457610db3612db5565b5b60200260200101819052506000610df4858484610def88604051602001610ddb9190612df3565b604051602081830303815290604052611a89565b611b37565b90506000670de0b6b3a7640000826080015151836060015151610e179190612cef565b610e219190612e0e565b9050610e2d8582611c1e565b610e35611d74565b60005b826060015151811015610f7f57600683606001518281518110610e5e57610e5d612db5565b5b6020026020010151908060018154018082558091505060019003906000526020600020906004020160009091909190915060008201518160000160006101000a81548160ff02191690836005811115610eba57610eb9612557565b5b021790555060208201518160000160016101000a81548160ff021916908315150217905550604082015181600101556060820151816002019081610efe9190612ff2565b506080820151816003019081610f149190612ff2565b5050507fc49b1ec0eb7c98005627460a5835a0df2fe1488b6ce707971fd97a292b441b8783606001518281518110610f4f57610f4e612db5565b5b6020026020010151604051610f649190613141565b60405180910390a18080610f7790613163565b915050610e38565b5060005b82608001515181101561111457600783608001518281518110610fa957610fa8612db5565b5b6020026020010151908060018154018082558091505060019003906000526020600020906006020160009091909190915060008201518160000160006101000a81548160ff0219169083600481111561100557611004612557565b5b021790555060208201518160000160016101000a8154816fffffffffffffffffffffffffffffffff021916908360801c021790555060408201518160010160006101000a8154816fffffffffffffffffffffffffffffffff021916908360801c02179055506060820151816002015560808201518160030190816110899190612ff2565b5060a0820151816004015560c08201518160050190816110a99190612ff2565b5050507f916e7efe9818b66900794f50ba1d36d3a02dd7e5dcdc0a6aed41596c16dbbce8836080015182815181106110e4576110e3612db5565b5b60200260200101516040516110f9919061324e565b60405180910390a1808061110c90613163565b915050610f83565b508160a00151600890816111289190612ff2565b507fa02bad2385a6d69bf4962b84a73d3265d9aaaf331bdf2af45a2980d77dc272cb8260a0015160405161115c9190613270565b60405180910390a1505050505050565b600281565b6000600160008473ffffffffffffffffffffffffffffffffffffffff1673ffffffffffffffffffffffffffffffffffffffff16815260200190815260200160002060008373ffffffffffffffffffffffffffffffffffffffff1673ffffffffffffffffffffffffffffffffffffffff16815260200190815260200160002054905092915050565b600033905090565b600073ffffffffffffffffffffffffffffffffffffffff168373ffffffffffffffffffffffffffffffffffffffff160361126f576040517f08c379a000000000000000000000000000000000000000000000000000000000815260040161126690613304565b60405180910390fd5b600073ffffffffffffffffffffffffffffffffffffffff168273ffffffffffffffffffffffffffffffffffffffff16036112de576040517f08c379a00000000000000000000000000000000000000000000000000000000081526004016112d590613396565b60405180910390fd5b80600160008573ffffffffffffffffffffffffffffffffffffffff1673ffffffffffffffffffffffffffffffffffffffff16815260200190815260200160002060008473ffffffffffffffffffffffffffffffffffffffff1673ffffffffffffffffffffffffffffffffffffffff168152602001908152602001600020819055508173ffffffffffffffffffffffffffffffffffffffff168373ffffffffffffffffffffffffffffffffffffffff167f8c5be1e5ebec7d5bd14f71427d1e84f3dd0314c0f7b2291e5b200ac8c7c3b925836040516113bc919061240c565b60405180910390a3505050565b60006113d58484611171565b90507fffffffffffffffffffffffffffffffffffffffffffffffffffffffffffffffff811461144f5781811015611441576040517f08c379a000000000000000000000000000000000000000000000000000000000815260040161143890613402565b60405180910390fd5b61144e8484848403611200565b5b50505050565b600073ffffffffffffffffffffffffffffffffffffffff168373ffffffffffffffffffffffffffffffffffffffff16036114c4576040517f08c379a00000000000000000000000000000000000000000000000000000000081526004016114bb90613494565b60405180910390fd5b600073ffffffffffffffffffffffffffffffffffffffff168273ffffffffffffffffffffffffffffffffffffffff1603611533576040517f08c379a000000000000000000000000000000000000000000000000000000000815260040161152a90613526565b60405180910390fd5b61153e838383611d86565b60008060008573ffffffffffffffffffffffffffffffffffffffff1673ffffffffffffffffffffffffffffffffffffffff168152602001908152602001600020549050818110156115c4576040517f08c379a00000000000000000000000000000000000000000000000000000000081526004016115bb906135b8565b60405180910390fd5b8181036000808673ffffffffffffffffffffffffffffffffffffffff1673ffffffffffffffffffffffffffffffffffffffff16815260200190815260200160002081905550816000808573ffffffffffffffffffffffffffffffffffffffff1673ffffffffffffffffffffffffffffffffffffffff168152602001908152602001600020600082825401925050819055508273ffffffffffffffffffffffffffffffffffffffff168473ffffffffffffffffffffffffffffffffffffffff167fddf252ad1be2c89b69c2b068fc378daa952ba7f163c4a11628f55a4df523b3ef846040516116b2919061240c565b60405180910390a36116c5848484611d8b565b50505050565b6116d3611ffe565b6040518060400160405280846fffffffffffffffffffffffffffffffff1916815260200161170084611d90565b815250905092915050565b611713612031565b7f000000000000000000000000000000000000000000000000000000000000000073ffffffffffffffffffffffffffffffffffffffff16633a0ba6ff836040518263ffffffff1660e01b815260040161176c91906135e7565b600060405180830381865afa158015611789573d6000803e3d6000fd5b505050506040513d6000823e3d601f19601f820116820180604052508101906117b2919061379e565b9050919050565b6117c1612031565b7f000000000000000000000000000000000000000000000000000000000000000073ffffffffffffffffffffffffffffffffffffffff1663c3bcacd08585856040518463ffffffff1660e01b815260040161181e939291906137e7565b600060405180830381865afa15801561183b573d6000803e3d6000fd5b505050506040513d6000823e3d601f19601f82011682018060405250810190611864919061379e565b90509392505050565b61187561207f565b7f000000000000000000000000000000000000000000000000000000000000000073ffffffffffffffffffffffffffffffffffffffff1663e379821c836040518263ffffffff1660e01b81526004016118ce9190612a74565b600060405180830381865afa1580156118eb573d6000803e3d6000fd5b505050506040513d6000823e3d601f19601f82011682018060405250810190611914919061393f565b9050919050565b61192361207f565b7f000000000000000000000000000000000000000000000000000000000000000073ffffffffffffffffffffffffffffffffffffffff1663409f789a8585856040518463ffffffff1660e01b815260040161198093929190613997565b600060405180830381865afa15801561199d573d6000803e3d6000fd5b505050506040513d6000823e3d601f19601f820116820180604052508101906119c6919061393f565b90509392505050565b6119d761207f565b7f000000000000000000000000000000000000000000000000000000000000000073ffffffffffffffffffffffffffffffffffffffff16633880e36187878787876040518663ffffffff1660e01b8152600401611a389594939291906139ce565b600060405180830381865afa158015611a55573d6000803e3d6000fd5b505050506040513d6000823e3d601f19601f82011682018060405250810190611a7e919061393f565b905095945050505050565b611a916120f8565b7f000000000000000000000000000000000000000000000000000000000000000073ffffffffffffffffffffffffffffffffffffffff16636835f32c836040518263ffffffff1660e01b8152600401611aea9190613270565b600060405180830381865afa158015611b07573d6000803e3d6000fd5b505050506040513d6000823e3d601f19601f82011682018060405250810190611b309190613abd565b9050919050565b611b3f61211b565b600085806020019051810190611b559190614108565b90506000611b64868686611db0565b90507f000000000000000000000000000000000000000000000000000000000000000073ffffffffffffffffffffffffffffffffffffffff166312b037ff8383611bac610a08565b6040518463ffffffff1660e01b8152600401611bca9392919061491e565b6000604051808303816000875af1158015611be9573d6000803e3d6000fd5b505050506040513d6000823e3d601f19601f82011682018060405250810190611c129190614dc9565b92505050949350505050565b600073ffffffffffffffffffffffffffffffffffffffff168273ffffffffffffffffffffffffffffffffffffffff1603611c8d576040517f08c379a0000000000000000000000000000000000000000000000000000000008152600401611c8490614e5e565b60405180910390fd5b611c9960008383611d86565b8060026000828254611cab9190612cef565b92505081905550806000808473ffffffffffffffffffffffffffffffffffffffff1673ffffffffffffffffffffffffffffffffffffffff168152602001908152602001600020600082825401925050819055508173ffffffffffffffffffffffffffffffffffffffff16600073ffffffffffffffffffffffffffffffffffffffff167fddf252ad1be2c89b69c2b068fc378daa952ba7f163c4a11628f55a4df523b3ef83604051611d5c919061240c565b60405180910390a3611d7060008383611d8b565b5050565b611d7c611e64565b611d84611f14565b565b505050565b505050565b611d9861217a565b60405180602001604052808315158152509050919050565b611db861218f565b7f000000000000000000000000000000000000000000000000000000000000000073ffffffffffffffffffffffffffffffffffffffff1663992403368585856040518463ffffffff1660e01b8152600401611e1593929190614fe1565b600060405180830381865afa158015611e32573d6000803e3d6000fd5b505050506040513d6000823e3d601f19601f82011682018060405250810190611e5b91906152bb565b90509392505050565b6000600680549050905060008114611f115760005b81811015611f0f576006805480611e9357611e92615304565b5b6001900381819060005260206000209060040201600080820160006101000a81549060ff02191690556000820160016101000a81549060ff02191690556001820160009055600282016000611ee891906121d0565b600382016000611ef891906121d0565b505090558080611f0790613163565b915050611e79565b505b50565b6000600780549050905060008114611ffb5760005b81811015611ff9576007805480611f4357611f42615304565b5b6001900381819060005260206000209060060201600080820160006101000a81549060ff02191690556000820160016101000a8154906fffffffffffffffffffffffffffffffff02191690556001820160006101000a8154906fffffffffffffffffffffffffffffffff02191690556002820160009055600382016000611fca91906121d0565b6004820160009055600582016000611fe291906121d0565b505090558080611ff190613163565b915050611f29565b505b50565b604051806040016040528060006fffffffffffffffffffffffffffffffff1916815260200161202b61217a565b81525090565b6040518060c00160405280600060058111156120505761204f612557565b5b815260200160008152602001600015158152602001600015158152602001600015158152602001606081525090565b6040518060e001604052806000600481111561209e5761209d612557565b5b815260200160006fffffffffffffffffffffffffffffffff1916815260200160006fffffffffffffffffffffffffffffffff1916815260200160008152602001600015158152602001600015158152602001606081525090565b604051806060016040528060608152602001600015158152602001606081525090565b6040518060c0016040528060006fffffffffffffffffffffffffffffffff1916815260200160006fffffffffffffffffffffffffffffffff19168152602001600080191681526020016060815260200160608152602001606081525090565b60405180602001604052806000151581525090565b604051806080016040528060006fffffffffffffffffffffffffffffffff1916815260200160608152602001606081526020016121ca6120f8565b81525090565b5080546121dc90612c8f565b6000825580601f106121ee575061220d565b601f01602090049060005260206000209081019061220c9190612210565b5b50565b5b80821115612229576000816000905550600101612211565b5090565b600081519050919050565b600082825260208201905092915050565b60005b8381101561226757808201518184015260208101905061224c565b60008484015250505050565b6000601f19601f8301169050919050565b600061228f8261222d565b6122998185612238565b93506122a9818560208601612249565b6122b281612273565b840191505092915050565b600060208201905081810360008301526122d78184612284565b905092915050565b6000604051905090565b600080fd5b600080fd5b600073ffffffffffffffffffffffffffffffffffffffff82169050919050565b600061231e826122f3565b9050919050565b61232e81612313565b811461233957600080fd5b50565b60008135905061234b81612325565b92915050565b6000819050919050565b61236481612351565b811461236f57600080fd5b50565b6000813590506123818161235b565b92915050565b6000806040838503121561239e5761239d6122e9565b5b60006123ac8582860161233c565b92505060206123bd85828601612372565b9150509250929050565b60008115159050919050565b6123dc816123c7565b82525050565b60006020820190506123f760008301846123d3565b92915050565b61240681612351565b82525050565b600060208201905061242160008301846123fd565b92915050565b6000806000606084860312156124405761243f6122e9565b5b600061244e8682870161233c565b935050602061245f8682870161233c565b925050604061247086828701612372565b9150509250925092565b600060ff82169050919050565b6124908161247a565b82525050565b60006020820190506124ab6000830184612487565b92915050565b6000819050919050565b60006124d66124d16124cc846122f3565b6124b1565b6122f3565b9050919050565b60006124e8826124bb565b9050919050565b60006124fa826124dd565b9050919050565b61250a816124ef565b82525050565b60006020820190506125256000830184612501565b92915050565b600081519050919050565b600082825260208201905092915050565b6000819050602082019050919050565b7f4e487b7100000000000000000000000000000000000000000000000000000000600052602160045260246000fd5b6006811061259757612596612557565b5b50565b60008190506125a882612586565b919050565b60006125b88261259a565b9050919050565b6125c8816125ad565b82525050565b6125d7816123c7565b82525050565b6125e681612351565b82525050565b600081519050919050565b600082825260208201905092915050565b6000612613826125ec565b61261d81856125f7565b935061262d818560208601612249565b61263681612273565b840191505092915050565b600060a08301600083015161265960008601826125bf565b50602083015161266c60208601826125ce565b50604083015161267f60408601826125dd565b50606083015184820360608601526126978282612608565b915050608083015184820360808601526126b18282612608565b9150508091505092915050565b60006126ca8383612641565b905092915050565b6000602082019050919050565b60006126ea8261252b565b6126f48185612536565b93508360208202850161270685612547565b8060005b85811015612742578484038952815161272385826126be565b945061272e836126d2565b925060208a0199505060018101905061270a565b50829750879550505050505092915050565b600081519050919050565b600082825260208201905092915050565b6000819050602082019050919050565b6005811061279157612790612557565b5b50565b60008190506127a282612780565b919050565b60006127b282612794565b9050919050565b6127c2816127a7565b82525050565b60007fffffffffffffffffffffffffffffffff0000000000000000000000000000000082169050919050565b6127fd816127c8565b82525050565b600060e08301600083015161281b60008601826127b9565b50602083015161282e60208601826127f4565b50604083015161284160408601826127f4565b50606083015161285460608601826125dd565b506080830151848203608086015261286c8282612608565b91505060a083015161288160a08601826125dd565b5060c083015184820360c08601526128998282612608565b9150508091505092915050565b60006128b28383612803565b905092915050565b6000602082019050919050565b60006128d282612754565b6128dc818561275f565b9350836020820285016128ee85612770565b8060005b8581101561292a578484038952815161290b85826128a6565b9450612916836128ba565b925060208a019950506001810190506128f2565b50829750879550505050505092915050565b600082825260208201905092915050565b6000612958826125ec565b612962818561293c565b9350612972818560208601612249565b61297b81612273565b840191505092915050565b600060608201905081810360008301526129a081866126df565b905081810360208301526129b481856128c7565b905081810360408301526129c8818461294d565b9050949350505050565b6000602082840312156129e8576129e76122e9565b5b60006129f68482850161233c565b91505092915050565b602082016000820151612a1560008501826125ce565b50505050565b604082016000820151612a3160008501826127f4565b506020820151612a4460208501826129ff565b50505050565b6000604082019050612a5f6000830184612a1b565b92915050565b612a6e816127c8565b82525050565b6000602082019050612a896000830184612a65565b92915050565b600080fd5b600080fd5b7f4e487b7100000000000000000000000000000000000000000000000000000000600052604160045260246000fd5b612ad182612273565b810181811067ffffffffffffffff82111715612af057612aef612a99565b5b80604052505050565b6000612b036122df565b9050612b0f8282612ac8565b919050565b600067ffffffffffffffff821115612b2f57612b2e612a99565b5b612b3882612273565b9050602081019050919050565b82818337600083830152505050565b6000612b67612b6284612b14565b612af9565b905082815260208101848484011115612b8357612b82612a94565b5b612b8e848285612b45565b509392505050565b600082601f830112612bab57612baa612a8f565b5b8135612bbb848260208601612b54565b91505092915050565b60008060408385031215612bdb57612bda6122e9565b5b600083013567ffffffffffffffff811115612bf957612bf86122ee565b5b612c0585828601612b96565b9250506020612c168582860161233c565b9150509250929050565b60008060408385031215612c3757612c366122e9565b5b6000612c458582860161233c565b9250506020612c568582860161233c565b9150509250929050565b7f4e487b7100000000000000000000000000000000000000000000000000000000600052602260045260246000fd5b60006002820490506001821680612ca757607f821691505b602082108103612cba57612cb9612c60565b5b50919050565b7f4e487b7100000000000000000000000000000000000000000000000000000000600052601160045260246000fd5b6000612cfa82612351565b9150612d0583612351565b9250828201905080821115612d1d57612d1c612cc0565b5b92915050565b7f45524332303a2064656372656173656420616c6c6f77616e63652062656c6f7760008201527f207a65726f000000000000000000000000000000000000000000000000000000602082015250565b6000612d7f602583612238565b9150612d8a82612d23565b604082019050919050565b60006020820190508181036000830152612dae81612d72565b9050919050565b7f4e487b7100000000000000000000000000000000000000000000000000000000600052603260045260246000fd5b612ded81612313565b82525050565b6000602082019050612e086000830184612de4565b92915050565b6000612e1982612351565b9150612e2483612351565b9250828202612e3281612351565b91508282048414831517612e4957612e48612cc0565b5b5092915050565b60008190508160005260206000209050919050565b60006020601f8301049050919050565b600082821b905092915050565b600060088302612eb27fffffffffffffffffffffffffffffffffffffffffffffffffffffffffffffffff82612e75565b612ebc8683612e75565b95508019841693508086168417925050509392505050565b6000612eef612eea612ee584612351565b6124b1565b612351565b9050919050565b6000819050919050565b612f0983612ed4565b612f1d612f1582612ef6565b848454612e82565b825550505050565b600090565b612f32612f25565b612f3d818484612f00565b505050565b5b81811015612f6157612f56600082612f2a565b600181019050612f43565b5050565b601f821115612fa657612f7781612e50565b612f8084612e65565b81016020851015612f8f578190505b612fa3612f9b85612e65565b830182612f42565b50505b505050565b600082821c905092915050565b6000612fc960001984600802612fab565b1980831691505092915050565b6000612fe28383612fb8565b9150826002028217905092915050565b612ffb826125ec565b67ffffffffffffffff81111561301457613013612a99565b5b61301e8254612c8f565b613029828285612f65565b600060209050601f83116001811461305c576000841561304a578287015190505b6130548582612fd6565b8655506130bc565b601f19841661306a86612e50565b60005b828110156130925784890151825560018201915060208501945060208101905061306d565b868310156130af57848901516130ab601f891682612fb8565b8355505b6001600288020188555050505b505050505050565b600060a0830160008301516130dc60008601826125bf565b5060208301516130ef60208601826125ce565b50604083015161310260408601826125dd565b506060830151848203606086015261311a8282612608565b915050608083015184820360808601526131348282612608565b9150508091505092915050565b6000602082019050818103600083015261315b81846130c4565b905092915050565b600061316e82612351565b91507fffffffffffffffffffffffffffffffffffffffffffffffffffffffffffffffff82036131a05761319f612cc0565b5b600182019050919050565b600060e0830160008301516131c360008601826127b9565b5060208301516131d660208601826127f4565b5060408301516131e960408601826127f4565b5060608301516131fc60608601826125dd565b50608083015184820360808601526132148282612608565b91505060a083015161322960a08601826125dd565b5060c083015184820360c08601526132418282612608565b9150508091505092915050565b6000602082019050818103600083015261326881846131ab565b905092915050565b6000602082019050818103600083015261328a818461294d565b905092915050565b7f45524332303a20617070726f76652066726f6d20746865207a65726f2061646460008201527f7265737300000000000000000000000000000000000000000000000000000000602082015250565b60006132ee602483612238565b91506132f982613292565b604082019050919050565b6000602082019050818103600083015261331d816132e1565b9050919050565b7f45524332303a20617070726f766520746f20746865207a65726f20616464726560008201527f7373000000000000000000000000000000000000000000000000000000000000602082015250565b6000613380602283612238565b915061338b82613324565b604082019050919050565b600060208201905081810360008301526133af81613373565b9050919050565b7f45524332303a20696e73756666696369656e7420616c6c6f77616e6365000000600082015250565b60006133ec601d83612238565b91506133f7826133b6565b602082019050919050565b6000602082019050818103600083015261341b816133df565b9050919050565b7f45524332303a207472616e736665722066726f6d20746865207a65726f20616460008201527f6472657373000000000000000000000000000000000000000000000000000000602082015250565b600061347e602583612238565b915061348982613422565b604082019050919050565b600060208201905081810360008301526134ad81613471565b9050919050565b7f45524332303a207472616e7366657220746f20746865207a65726f206164647260008201527f6573730000000000000000000000000000000000000000000000000000000000602082015250565b6000613510602383612238565b915061351b826134b4565b604082019050919050565b6000602082019050818103600083015261353f81613503565b9050919050565b7f45524332303a207472616e7366657220616d6f756e742065786365656473206260008201527f616c616e63650000000000000000000000000000000000000000000000000000602082015250565b60006135a2602683612238565b91506135ad82613546565b604082019050919050565b600060208201905081810360008301526135d181613595565b9050919050565b6135e1816125ad565b82525050565b60006020820190506135fc60008301846135d8565b92915050565b600080fd5b600080fd5b6006811061361957600080fd5b50565b60008151905061362b8161360c565b92915050565b6000815190506136408161235b565b92915050565b61364f816123c7565b811461365a57600080fd5b50565b60008151905061366c81613646565b92915050565b600061368561368084612b14565b612af9565b9050828152602081018484840111156136a1576136a0612a94565b5b6136ac848285612249565b509392505050565b600082601f8301126136c9576136c8612a8f565b5b81516136d9848260208601613672565b91505092915050565b600060c082840312156136f8576136f7613602565b5b61370260c0612af9565b905060006137128482850161361c565b600083015250602061372684828501613631565b602083015250604061373a8482850161365d565b604083015250606061374e8482850161365d565b60608301525060806137628482850161365d565b60808301525060a082015167ffffffffffffffff81111561378657613785613607565b5b613792848285016136b4565b60a08301525092915050565b6000602082840312156137b4576137b36122e9565b5b600082015167ffffffffffffffff8111156137d2576137d16122ee565b5b6137de848285016136e2565b91505092915050565b60006060820190506137fc60008301866135d8565b61380960208301856123d3565b61381660408301846123d3565b949350505050565b6005811061382b57600080fd5b50565b60008151905061383d8161381e565b92915050565b61384c816127c8565b811461385757600080fd5b50565b60008151905061386981613843565b92915050565b600060e0828403121561388557613884613602565b5b61388f60e0612af9565b9050600061389f8482850161382e565b60008301525060206138b38482850161385a565b60208301525060406138c78482850161385a565b60408301525060606138db84828501613631565b60608301525060806138ef8482850161365d565b60808301525060a06139038482850161365d565b60a08301525060c082015167ffffffffffffffff81111561392757613926613607565b5b613933848285016136b4565b60c08301525092915050565b600060208284031215613955576139546122e9565b5b600082015167ffffffffffffffff811115613973576139726122ee565b5b61397f8482850161386f565b91505092915050565b613991816127a7565b82525050565b60006060820190506139ac6000830186612a65565b6139b960208301856123fd565b6139c66040830184613988565b949350505050565b600060a0820190506139e36000830188612a65565b6139f060208301876123fd565b6139fd6040830186613988565b613a0a60608301856123d3565b613a1760808301846123d3565b9695505050505050565b600060608284031215613a3757613a36613602565b5b613a416060612af9565b9050600082015167ffffffffffffffff811115613a6157613a60613607565b5b613a6d848285016136b4565b6000830152506020613a818482850161365d565b602083015250604082015167ffffffffffffffff811115613aa557613aa4613607565b5b613ab1848285016136b4565b60408301525092915050565b600060208284031215613ad357613ad26122e9565b5b600082015167ffffffffffffffff811115613af157613af06122ee565b5b613afd84828501613a21565b91505092915050565b6000819050919050565b613b1981613b06565b8114613b2457600080fd5b50565b600081519050613b3681613b10565b92915050565b600067ffffffffffffffff821115613b5757613b56612a99565b5b602082029050602081019050919050565b600080fd5b600067ffffffffffffffff821115613b8857613b87612a99565b5b602082029050602081019050919050565b600060a08284031215613baf57613bae613602565b5b613bb960a0612af9565b90506000613bc98482850161361c565b6000830152506020613bdd8482850161365d565b6020830152506040613bf18482850161365d565b6040830152506060613c0584828501613631565b606083015250608082015167ffffffffffffffff811115613c2957613c28613607565b5b613c35848285016136b4565b60808301525092915050565b6000613c54613c4f84613b6d565b612af9565b90508083825260208201905060208402830185811115613c7757613c76613b68565b5b835b81811015613cbe57805167ffffffffffffffff811115613c9c57613c9b612a8f565b5b808601613ca98982613b99565b85526020850194505050602081019050613c79565b5050509392505050565b600082601f830112613cdd57613cdc612a8f565b5b8151613ced848260208601613c41565b91505092915050565b600067ffffffffffffffff821115613d1157613d10612a99565b5b602082029050602081019050919050565b600060c08284031215613d3857613d37613602565b5b613d4260c0612af9565b90506000613d528482850161382e565b6000830152506020613d668482850161385a565b6020830152506040613d7a8482850161385a565b6040830152506060613d8e8482850161365d565b6060830152506080613da284828501613631565b60808301525060a082015167ffffffffffffffff811115613dc657613dc5613607565b5b613dd2848285016136b4565b60a08301525092915050565b6000613df1613dec84613cf6565b612af9565b90508083825260208201905060208402830185811115613e1457613e13613b68565b5b835b81811015613e5b57805167ffffffffffffffff811115613e3957613e38612a8f565b5b808601613e468982613d22565b85526020850194505050602081019050613e16565b5050509392505050565b600082601f830112613e7a57613e79612a8f565b5b8151613e8a848260208601613dde565b91505092915050565b600060a08284031215613ea957613ea8613602565b5b613eb360a0612af9565b9050600082015167ffffffffffffffff811115613ed357613ed2613607565b5b613edf84828501613cc8565b600083015250602082015167ffffffffffffffff811115613f0357613f02613607565b5b613f0f84828501613e65565b6020830152506040613f2384828501613b27565b604083015250606082015167ffffffffffffffff811115613f4757613f46613607565b5b613f53848285016136b4565b606083015250608082015167ffffffffffffffff811115613f7757613f76613607565b5b613f83848285016136b4565b60808301525092915050565b6000613fa2613f9d84613b3c565b612af9565b90508083825260208201905060208402830185811115613fc557613fc4613b68565b5b835b8181101561400c57805167ffffffffffffffff811115613fea57613fe9612a8f565b5b808601613ff78982613e93565b85526020850194505050602081019050613fc7565b5050509392505050565b600082601f83011261402b5761402a612a8f565b5b815161403b848260208601613f8f565b91505092915050565b600060a0828403121561405a57614059613602565b5b61406460a0612af9565b905060006140748482850161385a565b60008301525060206140888482850161385a565b602083015250604061409c84828501613b27565b604083015250606082015167ffffffffffffffff8111156140c0576140bf613607565b5b6140cc848285016136b4565b606083015250608082015167ffffffffffffffff8111156140f0576140ef613607565b5b6140fc84828501614016565b60808301525092915050565b60006020828403121561411e5761411d6122e9565b5b600082015167ffffffffffffffff81111561413c5761413b6122ee565b5b61414884828501614044565b91505092915050565b61415a81613b06565b82525050565b600081519050919050565b600082825260208201905092915050565b6000819050602082019050919050565b600081519050919050565b600082825260208201905092915050565b6000819050602082019050919050565b600060a0830160008301516141d060008601826125bf565b5060208301516141e360208601826125ce565b5060408301516141f660408601826125ce565b50606083015161420960608601826125dd565b50608083015184820360808601526142218282612608565b9150508091505092915050565b600061423a83836141b8565b905092915050565b6000602082019050919050565b600061425a8261418c565b6142648185614197565b935083602082028501614276856141a8565b8060005b858110156142b25784840389528151614293858261422e565b945061429e83614242565b925060208a0199505060018101905061427a565b50829750879550505050505092915050565b600081519050919050565b600082825260208201905092915050565b6000819050602082019050919050565b600060c08301600083015161430860008601826127b9565b50602083015161431b60208601826127f4565b50604083015161432e60408601826127f4565b50606083015161434160608601826125ce565b50608083015161435460808601826125dd565b5060a083015184820360a086015261436c8282612608565b9150508091505092915050565b600061438583836142f0565b905092915050565b6000602082019050919050565b60006143a5826142c4565b6143af81856142cf565b9350836020820285016143c1856142e0565b8060005b858110156143fd57848403895281516143de8582614379565b94506143e98361438d565b925060208a019950506001810190506143c5565b50829750879550505050505092915050565b600060a083016000830151848203600086015261442c828261424f565b91505060208301518482036020860152614446828261439a565b915050604083015161445b6040860182614151565b50606083015184820360608601526144738282612608565b9150506080830151848203608086015261448d8282612608565b9150508091505092915050565b60006144a6838361440f565b905092915050565b6000602082019050919050565b60006144c682614160565b6144d0818561416b565b9350836020820285016144e28561417c565b8060005b8581101561451e57848403895281516144ff858261449a565b945061450a836144ae565b925060208a019950506001810190506144e6565b50829750879550505050505092915050565b600060a08301600083015161454860008601826127f4565b50602083015161455b60208601826127f4565b50604083015161456e6040860182614151565b50606083015184820360608601526145868282612608565b915050608083015184820360808601526145a082826144bb565b9150508091505092915050565b600081519050919050565b600082825260208201905092915050565b6000819050602082019050919050565b600060c0830160008301516145f160008601826125bf565b50602083015161460460208601826125dd565b50604083015161461760408601826125ce565b50606083015161462a60608601826125ce565b50608083015161463d60808601826125ce565b5060a083015184820360a08601526146558282612608565b9150508091505092915050565b600061466e83836145d9565b905092915050565b6000602082019050919050565b600061468e826145ad565b61469881856145b8565b9350836020820285016146aa856145c9565b8060005b858110156146e657848403895281516146c78582614662565b94506146d283614676565b925060208a019950506001810190506146ae565b50829750879550505050505092915050565b600081519050919050565b600082825260208201905092915050565b6000819050602082019050919050565b600060e08301600083015161473c60008601826127b9565b50602083015161474f60208601826127f4565b50604083015161476260408601826127f4565b50606083015161477560608601826125dd565b50608083015161478860808601826125ce565b5060a083015161479b60a08601826125ce565b5060c083015184820360c08601526147b38282612608565b9150508091505092915050565b60006147cc8383614724565b905092915050565b6000602082019050919050565b60006147ec826146f8565b6147f68185614703565b93508360208202850161480885614714565b8060005b85811015614844578484038952815161482585826147c0565b9450614830836147d4565b925060208a0199505060018101905061480c565b50829750879550505050505092915050565b600060608301600083015184820360008601526148738282612608565b915050602083015161488860208601826125ce565b50604083015184820360408601526148a08282612608565b9150508091505092915050565b60006080830160008301516148c560008601826127f4565b50602083015184820360208601526148dd8282614683565b915050604083015184820360408601526148f782826147e1565b915050606083015184820360608601526149118282614856565b9150508091505092915050565b600060808201905081810360008301526149388186614530565b9050818103602083015261494c81856148ad565b905061495b6040830184612a1b565b949350505050565b600067ffffffffffffffff82111561497e5761497d612a99565b5b602082029050602081019050919050565b600060a082840312156149a5576149a4613602565b5b6149af60a0612af9565b905060006149bf8482850161361c565b60008301525060206149d38482850161365d565b60208301525060406149e784828501613631565b604083015250606082015167ffffffffffffffff811115614a0b57614a0a613607565b5b614a17848285016136b4565b606083015250608082015167ffffffffffffffff811115614a3b57614a3a613607565b5b614a47848285016136b4565b60808301525092915050565b6000614a66614a6184614963565b612af9565b90508083825260208201905060208402830185811115614a8957614a88613b68565b5b835b81811015614ad057805167ffffffffffffffff811115614aae57614aad612a8f565b5b808601614abb898261498f565b85526020850194505050602081019050614a8b565b5050509392505050565b600082601f830112614aef57614aee612a8f565b5b8151614aff848260208601614a53565b91505092915050565b600067ffffffffffffffff821115614b2357614b22612a99565b5b602082029050602081019050919050565b600060e08284031215614b4a57614b49613602565b5b614b5460e0612af9565b90506000614b648482850161382e565b6000830152506020614b788482850161385a565b6020830152506040614b8c8482850161385a565b6040830152506060614ba084828501613631565b606083015250608082015167ffffffffffffffff811115614bc457614bc3613607565b5b614bd0848285016136b4565b60808301525060a0614be484828501613631565b60a08301525060c082015167ffffffffffffffff811115614c0857614c07613607565b5b614c14848285016136b4565b60c08301525092915050565b6000614c33614c2e84614b08565b612af9565b90508083825260208201905060208402830185811115614c5657614c55613b68565b5b835b81811015614c9d57805167ffffffffffffffff811115614c7b57614c7a612a8f565b5b808601614c888982614b34565b85526020850194505050602081019050614c58565b5050509392505050565b600082601f830112614cbc57614cbb612a8f565b5b8151614ccc848260208601614c20565b91505092915050565b600060c08284031215614ceb57614cea613602565b5b614cf560c0612af9565b90506000614d058482850161385a565b6000830152506020614d198482850161385a565b6020830152506040614d2d84828501613b27565b604083015250606082015167ffffffffffffffff811115614d5157614d50613607565b5b614d5d84828501614ada565b606083015250608082015167ffffffffffffffff811115614d8157614d80613607565b5b614d8d84828501614ca7565b60808301525060a082015167ffffffffffffffff811115614db157614db0613607565b5b614dbd848285016136b4565b60a08301525092915050565b600060208284031215614ddf57614dde6122e9565b5b600082015167ffffffffffffffff811115614dfd57614dfc6122ee565b5b614e0984828501614cd5565b91505092915050565b7f45524332303a206d696e7420746f20746865207a65726f206164647265737300600082015250565b6000614e48601f83612238565b9150614e5382614e12565b602082019050919050565b60006020820190508181036000830152614e7781614e3b565b9050919050565b600082825260208201905092915050565b6000614e9a826145ad565b614ea48185614e7e565b935083602082028501614eb6856145c9565b8060005b85811015614ef25784840389528151614ed38582614662565b9450614ede83614676565b925060208a01995050600181019050614eba565b50829750879550505050505092915050565b600082825260208201905092915050565b6000614f20826146f8565b614f2a8185614f04565b935083602082028501614f3c85614714565b8060005b85811015614f785784840389528151614f5985826147c0565b9450614f64836147d4565b925060208a01995050600181019050614f40565b50829750879550505050505092915050565b60006060830160008301518482036000860152614fa78282612608565b9150506020830151614fbc60208601826125ce565b5060408301518482036040860152614fd48282612608565b9150508091505092915050565b60006060820190508181036000830152614ffb8186614e8f565b9050818103602083015261500f8185614f15565b905081810360408301526150238184614f8a565b9050949350505050565b600067ffffffffffffffff82111561504857615047612a99565b5b602082029050602081019050919050565b600061506c6150678461502d565b612af9565b9050808382526020820190506020840283018581111561508f5761508e613b68565b5b835b818110156150d657805167ffffffffffffffff8111156150b4576150b3612a8f565b5b8086016150c189826136e2565b85526020850194505050602081019050615091565b5050509392505050565b600082601f8301126150f5576150f4612a8f565b5b8151615105848260208601615059565b91505092915050565b600067ffffffffffffffff82111561512957615128612a99565b5b602082029050602081019050919050565b600061514d6151488461510e565b612af9565b905080838252602082019050602084028301858111156151705761516f613b68565b5b835b818110156151b757805167ffffffffffffffff81111561519557615194612a8f565b5b8086016151a2898261386f565b85526020850194505050602081019050615172565b5050509392505050565b600082601f8301126151d6576151d5612a8f565b5b81516151e684826020860161513a565b91505092915050565b60006080828403121561520557615204613602565b5b61520f6080612af9565b9050600061521f8482850161385a565b600083015250602082015167ffffffffffffffff81111561524357615242613607565b5b61524f848285016150e0565b602083015250604082015167ffffffffffffffff81111561527357615272613607565b5b61527f848285016151c1565b604083015250606082015167ffffffffffffffff8111156152a3576152a2613607565b5b6152af84828501613a21565b60608301525092915050565b6000602082840312156152d1576152d06122e9565b5b600082015167ffffffffffffffff8111156152ef576152ee6122ee565b5b6152fb848285016151ef565b91505092915050565b7f4e487b7100000000000000000000000000000000000000000000000000000000600052603160045260246000fdfea264697066735822122015a6c4e24a4eccb7abb0c15c53c306ecc3d13f25371f5f40d501c2db071f8fc164736f6c63430008140033",
    "linkReferences": {}
  },
  "methodIdentifiers": {
    "ADDRESSES_PROVIDER_V2()": "46916301",
    "APP_ID()": "c187bbc1",
    "IS_IMPERSONATION_MODE()": "a183dc27",
    "SISMO_CONNECT_LIB_VERSION()": "c9512d99",
    "allowance(address,address)": "dd62ed3e",
    "approve(address,uint256)": "095ea7b3",
    "balanceOf(address)": "70a08231",
    "claimWithSismo(bytes,address)": "c9425313",
    "config()": "79502c55",
    "decimals()": "313ce567",
    "decreaseAllowance(address,uint256)": "a457c2d7",
    "getSismoConnectVerifiedResult()": "646860dc",
    "increaseAllowance(address,uint256)": "39509351",
    "name()": "06fdde03",
    "symbol()": "95d89b41",
    "totalSupply()": "18160ddd",
    "transfer(address,uint256)": "a9059cbb",
    "transferFrom(address,address,uint256)": "23b872dd"
  },
  "id": 32
}